:020000040000FA
:100000001EEF3EF0C96E12000AEF3AF0FEEC16F059
:10001000B8EC13F0FDD712007FEF3CF0D9CFE5FF2D
:10002000E1CFD9FF00C0E5FF01C0E5FF02C0E5FF59
:1000300003C0E5FF04C0E5FF05C0E5FF06C0E5FF1E
:1000400007C0E5FF08C0E5FF09C0E5FF0AC0E5FFFE
:100050000BC0E5FF0CC0E5FF0DC0E5FF0EC0E5FFDE
:100060000FC0E5FF10C0E5FF11C0E5FF12C0E5FFBE
:1000700013C0E5FF14C0E5FF15C0E5FF16C0E5FF9E
:1000800017C0E5FF18C0E5FF19C0E5FF1AC0E5FF7E
:100090001BC0E5FF1CC0E5FF1DC0E5FF1EC0E5FF5E
:1000A0001FC0E5FF20C0E5FF21C0E5FF22C0E5FF3E
:1000B00023C0E5FF24C0E5FF25C0E5FF020EDBCF2E
:1000C00000F0030EDBCF01F0040EDBCF02F0025094
:1000D000086E0150076E0050066EE56A100EE56E60
:1000E0000850E56E0750E56E0650E56E800EE56E31
:1000F000010EE56E300EE56E8AEC2FF0080EE1265B
:1001000038C103F039C104F03AC105F03BC106F033
:1001100003C007F004C008F005C009F006C00AF0EB
:10012000D8800AAED8900AE30A1E091E081E076C82
:1001300005E1082A03E1092AD8B40A2A30C10BF0E4
:1001400031C10CF0E86A010131BFFF0E0D6E0E6E79
:10015000D8903431106E33310F6ED89010320F3288
:100160003551E840E840C00B10123541E8403F0BE4
:10017000E8BAC009116E126A11BE12680F500B5C0A
:100180000F6E10500C58106E11500D58116E125009
:100190000E58126E800F810F08E1FF0E115C05E111
:1001A000FF0E105C02E1FE0E0F5CD8A04ED0125084
:1001B000800F800F08E1000E115C05E1000E105C5D
:1001C00002E1030E0F5CD8B040D00A340A30166E3C
:1001D0000930156E0830146E0730136E3EC117F0EB
:1001E0003FC118F0E86A01013FBFFF0E196E800F92
:1001F000F36E1650800FF35C08E11550195C05E1B1
:100200001450185C02E11350175C1FE30C50156E7C
:1002100015260D34166ED890153616360B44E84464
:10022000FC0B146E0B50E844E844030B151201015B
:10023000326B1450336F1550346F1650356F386B66
:10024000396B3A6B3B6BB0EF04F00850076E095006
:10025000086ED89008320732D890083207320A5018
:10026000E840E840C00B08120A40E8403F0BE8BAFB
:10027000C0090A6A083408300A6E0730096EE86A55
:100280000ABEFF0E0B6E0C6E07C00DF008C00EF01C
:10029000E86A08BEFF0E136EE56E1350E56E0E5051
:1002A000E56E0D50E56E0C50E56E0B50E56E0A5094
:1002B000E56E0950E56E67EC27F0096EF3CF0AF0A2
:1002C000F4CF0BF0E9CF0CF0080EE1263EC10DF0A3
:1002D0003FC10EF0E86A01013FBFFF0E136E146EBE
:1002E000E56E1350E56E0E50E56E0D50E56E0C5048
:1002F000E56E0B50E56E0A50E56E0950E56E4FEC69
:100300002AF0096EF3CF0AF0080EE12636C10BF091
:1003100037C10CF0E86A010137BFFF0E156E0C50B3
:10032000196E192615341A6ED89019361A360B44E0
:10033000E844FC0B186E0B50E844E844030B191218
:10034000176AD88006AED890D8B064D109C00BF037
:100350000AC00CF0E86A0ABEFF0E156E800FF36E3D
:100360001250800FF35C08E11150155C05E110504C
:100370000C5C02E10F500B5CD8B024D10650800F0A
:10038000F36E1A50800FF35C08E11950055C05E12B
:100390001850045C02E11750035CD8B0ECD03CC1AB
:1003A0000BF03DC10CF0E86A01013DBFFF0E156E78
:1003B000166E03500B2604500C22055015220650D1
:1003C00016220B500101386F0C50396F15503A6FDF
:1003D00016503B6F3EC10BF03FC10CF03CC115F015
:1003E0003DC116F00C50800FF36E1650800FF35C79
:1003F00002E115500B5CD8B0A2D038C11BF039C156
:100400001CF03AC11DF03BC11EF0D8901D30206E8B
:100410001C301F6ED89020321F321E50E840E8403A
:10042000C00B20121E40E8403F0BE8BAC009226A08
:100430001F50076E2050086E08340830206E0730B9
:100440001F6EE86A20BEFF0E216E226E07C023F0E9
:1004500008C024F0E86A08BEFF0E256EE56E255040
:10046000E56E2450E56E2350E56E2250E56E215076
:10047000E56E2050E56E1F50E56E67EC27F01F6EAD
:10048000F3CF20F0F4CF21F0E9CF22F0080EE126DF
:100490000BC023F00CC024F0E86A0CBEFF0E256EE2
:1004A000E56E2550E56E2450E56E2350E56E225032
:1004B000E56E2150E56E2050E56E1F50E56E4FEC65
:1004C0002AF01F6EF3CF20F0080EE1261F50096EB0
:1004D00020500A6E09C01FF00AC020F0E86A0ABE68
:1004E000FF0E216E226E1250800FF36E2250800F8D
:1004F000F35C08E12150115C05E12050105C02E141
:100500001F500F5C1CE20B50155C0B6E0C50165804
:100510000C6EE86A0CBEFF0E156E166E0B501B5E5D
:100520000C501C5A15501D5A16501E5A1B500101D2
:10053000386F1C50396F1D503A6F1E503B6F1A5068
:10054000800FF36E01013B51800FF35C08E13A51DB
:10055000195C05E13951185C02E13851175CD8B0DB
:10056000D8D117500101386F1850396F19503A6FB0
:100570001A503B6FCED11A50800FF36E0650800F89
:10058000F35C08E10550195C05E10450185C02E1D8
:100590000350175CD8B0BDD10D50035C0B6E0E50EC
:1005A00004580C6E13500558156E14500658166EEC
:1005B0000B500101386F0C50396F15503A6F1650BF
:1005C0003B6FA7D13CC10BF03DC10CF0E86A0101C3
:1005D0003DBFFF0E156E166E0D500B260E500C22F1
:1005E00013501522145016220B50035C0B6E0C5046
:1005F00004580C6E15500558156E16500658166E98
:100600000B500101386F0C50396F15503A6F16506E
:100610003B6F7FD10A1E096CD8B40A2A09C00BF0BF
:100620000AC00CF0E86A0ABEFF0E156E166E125074
:10063000800FF36E1650800FF35C08E11550115CCB
:1006400005E10C50105C02E10B500F5CD8B03ED1BC
:100650001A1C166E191C156E181C0C6E171C0B6ECE
:100660000B2A04E10C2A02E1154A162A1650800FC3
:10067000F36E0650800FF35C08E10550155C05E150
:1006800004500C5C02E103500B5CD8B0F8D03CC1C4
:1006900017F03DC118F0E86A01013DBFFF0E196E69
:1006A0001A6E1750035C176E18500458186E1950C4
:1006B0000558196E1A5006581A6E17500101386FF6
:1006C0001850396F19503A6F1A503B6F3EC117F0EE
:1006D0003FC118F03CC119F03DC11AF01850800F0D
:1006E000F36E1A50800FF35C02E11950175CD8B01A
:1006F000AAD038C11BF039C11CF03AC11DF03BC172
:100700001EF0D8901D30206E1C301F6ED890203205
:100710001F321E50E840E840C00B20121E40E84047
:100720003F0BE8BAC009216E226A21BE2268221E50
:10073000211E201E1F6C05E1202A03E1212AD8B4C6
:10074000222A1F50076E2050086E08340830206E91
:1007500007301F6EE86A20BEFF0E216E226EE86A27
:1007600008BEFF0E236EE56E2350E56E0850E56E61
:100770000750E56E2250E56E2150E56E2050E56E83
:100780001F50E56E67EC27F0076EF3CF08F0F4CF4B
:100790001FF0E9CF20F0080EE12617C021F018C0A5
:1007A00022F0E86A18BEFF0E236EE56E2350E56E58
:1007B0002250E56E2150E56E2050E56E1F50E56E2B
:1007C0000850E56E0750E56E4FEC2AF0076EF3CF48
:1007D00008F0080EE126081E076C02E1082A00E175
:1007E0000750096E08500A6EE86A0ABEFF0E076ECF
:1007F000800FF36E1250800FF35C08E11150075C1C
:1008000005E110500A5C02E10F50095C1CE2175030
:10081000195C176E18501A58186EE86A18BEFF0E49
:10082000076E086E17501B2618501C2207501D22F9
:1008300008501E221B500101386F1C50396F1D508B
:100840003A6F1E503B6F01013B51800FF36E165003
:10085000800FF35C08E115503A5D05E10C50395DFD
:1008600002E10B50385DD8B054D00B500101386F05
:100870000C50396F15503A6F16503B6F4AD00650E6
:10088000800FF36E1650800FF35C08E11550055C85
:1008900005E10C50045C02E10B50035CD8B039D088
:1008A0000D500324076E0E500420086E13500520CF
:1008B000096E145006200A6E07500101386F085067
:1008C000396F09503A6F0A503B6F23D03CC107F093
:1008D0003DC108F0E86A01013DBFFF0E096E0A6ED6
:1008E00007500D2608500E22095013220A501422D8
:1008F0000D5003260E5004221350052214500622D8
:1009000003500101386F0450396F05503A6F06509B
:100910003B6FD89001013A31046E3931036ED890A3
:10092000043203323B51E840E840C00B04123B4123
:10093000E8403F0BE8BAC009056E066A05BE0668C6
:1009400032510326335104223451052235510622F7
:100950000350326F0450336F0550346F0650356FBB
:10096000E56A100EE56E800EE56E010EE56E300E46
:10097000E56E0250E56E0150E56E0050E56E8AECC2
:100980002FF0080EE126E4CF25F0E4CF24F0E4CFE9
:1009900023F0E4CF22F0E4CF21F0E4CF20F0E4CF45
:1009A0001FF0E4CF1EF0E4CF1DF0E4CF1CF0E4CF45
:1009B0001BF0E4CF1AF0E4CF19F0E4CF18F0E4CF45
:1009C00017F0E4CF16F0E4CF15F0E4CF14F0E4CF45
:1009D00013F0E4CF12F0E4CF11F0E4CF10F0E4CF45
:1009E0000FF0E4CF0EF0E4CF0DF0E4CF0CF0E4CF45
:1009F0000BF0E4CF0AF0E4CF09F0E4CF08F0E4CF45
:100A000007F0E4CF06F0E4CF05F0E4CF04F0E4CF44
:100A100003F0E4CF02F0E4CF01F0E4CF00F0E4CF44
:100A2000D9FF1200D9CFE5FFE1CFD9FF00C0E5FF24
:100A300001C0E5FF02C0E5FF03C0E5FF04C0E5FF1C
:100A400005C0E5FF06C0E5FF07C0E5FF08C0E5FFFC
:100A500009C0E5FF0AC0E5FF0BC0E5FF0CC0E5FFDC
:100A60000DC0E5FF0EC0E5FF0FC0E5FF10C0E5FFBC
:100A700011C0E5FF12C0E5FF13C0E5FF14C0E5FF9C
:100A800015C0E5FF16C0E5FF17C0E5FF18C0E5FF7C
:100A900019C0E5FF1AC0E5FF1BC0E5FF1CC0E5FF5C
:100AA0001DC0E5FF1EC0E5FF020EDBCF00F0030E08
:100AB000DBCF01F0040EDBCF02F0050EDBCF03F03D
:100AC000060EDBCF04F0070EDBCF05F0080EDBCF00
:100AD00006F0090EDBCF07F00A0EDBCF08F0096A3B
:100AE0000A6A02C00DF00D50800A0DE102500401A7
:100AF0007F6F01507E6F00507D6F040E016E7D0E82
:100B0000006E800E026E03C0E9FF04C0F3FF0550C3
:100B100068EC3EF00B6E0B50D8B400EF09F00B50B0
:100B2000250A02E0E7EF08F00C6A0D6A0E6A0F6A08
:100B3000106A0A0E116E126A136A146A200E156E7C
:100B40001668176A2B0E186E032A02E3044A052A58
:100B500003C0E9FF04C0F3FF055068EC3EF0196ED6
:100B6000250A13E11950E56E0250E56E0150E56E5D
:100B70000050E56E01EC2FF0040EE126094A0A2A26
:100B8000032A02E3044A052ABED71950300A06E1B7
:100B9000300E156E032A02E3044A052A03C0E9FF5A
:100BA00004C0F3FF055068EC3EF02D0A06E1010E8B
:100BB000146E032A02E3044A052A03C0E9FF04C0B5
:100BC000F3FF055068EC3EF0200A08E1010E176EB5
:100BD000200E186E032A02E3044A052A03C0E9FF27
:100BE00004C0F3FF055068EC3EF02B0A06E1010E4D
:100BF000176E032A02E3044A052A03C0E9FF04C072
:100C0000F3FF055068EC3EF0196E800F4F0F2DE397
:100C10001950800F460F29E203C019F004C01AF0E2
:100C200005C01BF019C0E9FF1AC0F3FF1B5068ECA8
:100C30003EF01C6E800F500F12E31C50800F460FC9
:100C40000EE213500A0DF3CF1DF01D501C26D00EDE
:100C50001C24136E192A02E31A4A1B2AE3D719C06F
:100C600003F01AC004F01BC005F003C0E9FF04C084
:100C7000F3FF055068EC3EF02E0A2EE1032A02E352
:100C8000044A052A166A03C019F004C01AF005C008
:100C90001BF019C0E9FF1AC0F3FF1B5068EC3EF0CF
:100CA0001C6E800F500F12E31C50800F460F0EE297
:100CB00016500A0DF3CF1DF01D501C26D00E1C241B
:100CC000166E192A02E31A4A1B2AE3D719C003F049
:100CD0001AC004F01BC005F003C0E9FF04C0F3FF15
:100CE000055068EC3EF0196E6C0A07E1010E0C6EBF
:100CF000032A02E3044A052A09D01950680A06E1CA
:100D0000010E0E6E032A02E3044A052A03C0E9FF1E
:100D100004C0F3FF055068EC3EF0750A06E1010ED1
:100D2000106E032A02E3044A052A03C0E9FF04C047
:100D3000F3FF055068EC3EF0196E730A05E1010EF1
:100D40000D6E200E156E3FD01950780A03E1100E7B
:100D5000116E39D01950580A05E1100E116E010EAE
:100D6000126E31D01950630A02E1116A2CD0195069
:100D70006F0A03E1080E116E26D01950660A03E1CE
:100D8000010E0F6E20D01950640A1DE01950690A37
:100D90001AE0105005E0FF0E03260422052213D0AE
:100DA0001950E56E0250E56E0150E56E0050E56E9B
:100DB00001EC2FF0040EE126094A0A2A032A02E375
:100DC000044A052AA0D60D5021E00650030F0D6EEF
:100DD000000E0720196E000E08201A6E0DC006F0D6
:100DE00019C007F01AC008F0FD0E0D26FF0E1922DB
:100DF0001A220DC0E9FF19C0F3FF1A501EEC3DF096
:100E00000D6EF3CF19F0F4CF1AF032D10F50D8B4E1
:100E10003ED00650040F0F6E000E07201B6E000E12
:100E200008201C6E0FC006F01BC007F01CC008F0A5
:100E3000FC0E0F26FF0E1B221C220FC0E9FF1BC059
:100E4000F3FF1C50A4EC3CF00F6EF3CF1BF0F4CF7B
:100E50001CF0E9CF1DF0040E196E000E0D6E800E11
:100E60001A6E1650E56E240EE56E040EE56E000E49
:100E7000E56E1D50E56E1C50E56E1B50E56E0F5083
:100E8000E56E55EC26F0080EE1261668F1D01668DE
:100E90000C5023E00650040F0C6E000E07200F6E5E
:100EA000000E08201B6E0CC006F00FC007F01BC020
:100EB00008F0FC0E0C26FF0E0F221B220CC0E9FFCF
:100EC0000FC0F3FF1B50A4EC3CF00C6EF3CF0FF0FF
:100ED000F4CF1BF0E9CF1CF06AD00E5032E0065080
:100EE000020F0E6E000E07201D6E000E08201E6EF3
:100EF0000EC006F01DC007F01EC008F0FE0E0E2644
:100F0000FF0E1D221E220EC0E9FF1DC0F3FF1E5062
:100F1000DDEC3DF00E6E0EC00CF0E86A0EBEFF0E6A
:100F20000F6E1B6E1C6E11500A0A03E11050D8B4EC
:100F30003ED00C500E6E0EC00CF00F6A1B6A1C6A7D
:100F400036D00650020F0E6E000E07201D6E000EEA
:100F500008201E6E0EC006F01DC007F01EC008F06F
:100F6000FE0E0E26FF0E1D221E220EC0E9FF1DC022
:100F7000F3FF1E50DDEC3DF00E6EF3CF1DF00EC002
:100F80000CF01DC00FF0E86A1DBEFF0E1B6E1C6E3C
:100F900011500A0A02E110500AE00C500E6E0F5078
:100FA0001D6E0EC00CF01DC00FF01B6A1C6A040EF3
:100FB000196E010E0D6E800E1A6E1150D8B440D00D
:100FC000105013E01150E56E040EE56E010EE56E53
:100FD0001C50E56E1B50E56E0F50E56E0C50E56E33
:100FE00073EC29F0070EE12612D01150E56E040EC5
:100FF000E56E010EE56E1C50E56E1B50E56E0F5060
:10100000E56E0C50E56E1BEC34F0070EE126175030
:101010002FE00DC0E9FF19C0F3FF1A5068EC3EF055
:101020002D0A26E0FF0E0D2619221A2218C0E5FF10
:101030000DC0E9FF19C0F3FF1A50F2EC3EF018D0D2
:101040000CC0E5FF0DC0E9FF19C0F3FF1A50F2EC28
:101050003EF00D50010F0C6E000E19200E6E000EAA
:101060001A20E56A0CC0E9FF0EC0F3FFF2EC3EF077
:101070000DC00CF019C00EF01AC00FF013C010F024
:10108000105010E00CC0E9FF0EC0F3FF0F5068ECE9
:101090003EF0176E175006E00C2A02E30E4A0F2AA4
:1010A0001006EED710C013F014501EE109C00CF06A
:1010B0000AC00EF010C00FF00F5010E01550E56E92
:1010C0000250E56E0150E56E0050E56E01EC2FF028
:1010D000040EE1260C4A0E2A0F06EED70CC009F0CA
:1010E0000EC00AF00FC013F016C00CF00DC00DF0CA
:1010F00019C00EF01AC00FF009C010F00AC015F0A8
:101100000DC0E9FF0EC0F3FF0F5068EC3EF0166E05
:101110001650D8B43ED00CC016F0176A161E171E13
:101120001650171005E00CC016F00C06165031E0F2
:101130000DC0E9FF0EC0F3FF0F5068EC3EF0116EDA
:10114000125010E01150E56E9AEC3DF0166EE6522A
:10115000165004E01150166E169A02D011C016F007
:1011600016C011F01150E56E0250E56E0150E56EAB
:101170000050E56E01EC2FF0040EE1260D2A02E38B
:101180000E4A0F2A104A152A1350D8B4B9D713069D
:10119000B7D710C009F015C00AF014502BE010C0EA
:1011A0000CF015C00DF013C00EF00E501FE0200E15
:1011B000E56E0250E56E0150E56E0050E56E01EC03
:1011C0002FF0040EE1260C4A0D2A0E06EED70B5026
:1011D000E56E0250E56E0150E56E0050E56E01ECE3
:1011E0002FF0040EE126094A0A2A04D00CC009F0A7
:1011F0000DC00AF0032A02E3044A052A83EF05F032
:101200000AC0F3FF0950E4CF1EF0E4CF1DF0E4CF95
:101210001CF0E4CF1BF0E4CF1AF0E4CF19F0E4CFD8
:1012200018F0E4CF17F0E4CF16F0E4CF15F0E4CFD8
:1012300014F0E4CF13F0E4CF12F0E4CF11F0E4CFD8
:1012400010F0E4CF0FF0E4CF0EF0E4CF0DF0E4CFD8
:101250000CF0E4CF0BF0E4CF0AF0E4CF09F0E4CFD8
:1012600008F0E4CF07F0E4CF06F0E4CF05F0E4CFD8
:1012700004F0E4CF03F0E4CF02F0E4CF01F0E4CFD8
:1012800000F0E4CFD9FF1200D9CFE5FFE1CFD9FFBD
:1012900000C0E5FF01C0E5FF02C0E5FF03C0E5FFB8
:1012A00004C0E5FF05C0E5FF06C0E5FF07C0E5FF98
:1012B00008C0E5FF09C0E5FF0AC0E5FF0BC0E5FF78
:1012C0000CC0E5FF0DC0E5FF020EDBCF00F0030E02
:1012D000DBCF01F0040EDBCF02F00050090F066EE9
:1012E000000E0120076E000E0220086E0B6E0750E4
:1012F0000A6E0650096EE56A0D0EE56E0B50E56E3E
:101300000A50E56E0950E56E800EE56E010EE56E41
:10131000400EE56E8AEC2FF0080EE12600C009F0C1
:1013200001C00AF002C00BF0E56AE56E0B50E56EF5
:101330000A50E56E0950E56E800EE56E040EE56E0E
:10134000810EE56E8AEC2FF0080EE12681C403F0D1
:101350000350010A04E00350030A01E01FD1010118
:1013600048510101555D036E010149510101565972
:10137000046E01014A510101575901014B5101010C
:10138000585903500101946F0450956F0101555154
:101390000101486F010156510101496F0101575187
:1013A00001014A6F0101585101014B6F0101945134
:1013B0009511D8A47FD069EC3BF0036EF3CF04F015
:1013C000F4CF05F0E9CF09F001014D510A6E4E51FD
:1013D0000B6E4F510C6E50510D6E0A50035E0B5048
:1013E000045A0C50055A0D50095A035001015E6F02
:1013F00004505F6F0550606F7F0E0914616F01012B
:101400004CB125D001015F356131046E6031036E4E
:10141000043404320332000E04BEFF0E096E056E62
:1014200086C40AF00B6A0C6A0D6A0D50800FF36EC9
:101430000950800FF35C08E105500C5C05E1045095
:101440000B5C02E103500A5C02E201014C810101E4
:101450004CB14AD044C103F045C104F046C105F087
:1014600047C109F001016151800FF36E0950800FEF
:10147000F35C08E10550605D05E104505F5D02E149
:1014800003505E5D08E203C05EF104C05FF105C079
:1014900060F109C061F1010159A303D0010E036E8F
:1014A00001D0036803C094F10101956B03AE01D034
:1014B00095691AD001014C9151C15EF152C15FF1A1
:1014C00053C160F154C161F101015E510101446FEA
:1014D00001015F510101456F010160510101466F3A
:1014E000010161510101476F01016151800F800FBE
:1014F00008E1000E605D05E1000E5F5D02E1010E96
:101500005E5D06E20101626B636B646B656B46D0E6
:1015100001015E51036E5F51046E6051056E6151B1
:10152000E56E0550E56E0450E56E0350E56E010E64
:10153000E56E000EE56AE56AE56AECEC2DF0036EF7
:10154000F3CF04F0F4CF05F0E9CF09F0080EE1265F
:1015500094C10AF095C10BF0E86A010195BFFF0E36
:101560000C6E0D6E0950E56E0550E56E0450E56E8B
:101570000350E56E0D50E56E0C50E56E0B50E56EB8
:101580000A50E56E67EC27F00101626FF3CF63F15B
:10159000F4CF64F1E9CF65F1080EE126020E0401F3
:1015A000815DD8A045D1010159A142D10050230F3E
:1015B000036E000E0120046E000E0220E56E045042
:1015C000E56E0350E56E0EEC00F0030EE1260050D0
:1015D000230F036E000E0120046E000E0220056E24
:1015E000020E0326000E0422052203C0E9FF04C0F8
:1015F000F3FF0550A4EC3CF0F3CF04F0F4CF05F07A
:10160000E9CF09F00450036E0550046ED8900432FF
:101610000332D890043203320950E840E840C00B4E
:1016200004120940E8403F0BE8BAC009056E096A98
:1016300005BE096801015551035C0101666F010196
:10164000565104580101676F0101575105580101B6
:10165000686F0101585109580101696FD88069AF5D
:10166000D89022E30401831D046E821D036E034A99
:10167000042AE86A04BEFF0E056E096E0101695175
:10168000800FF36E0950800FF35C08E10550685D30
:1016900005E10450675D02E10350665D05E3010169
:1016A000666B676B686B696B01016951800F800F16
:1016B00008E1000E685D05E1000E675D02E1010EC4
:1016C000665D1EE382C403F083C404F0E86A04018B
:1016D00083BFFF0E056E800FF36E01016951800F0D
:1016E000F35C08E16851055C05E16751045C02E1C7
:1016F0006651035C05E30101666B676B686B696BA0
:101700000401875109E0E86CD8900101663767371A
:1017100068376937010FF9E301016951800F800FC4
:1017200008E1000E685D05E1800E675D02E1000ED4
:10173000665D07E3010166697F0E676F686B696B21
:1017400014D001016951800F810F08E1FF0E685D1F
:1017500005E1800E675D02E1000E665D06E20101B3
:10176000666B800E676F686969690050330F036E9E
:10177000000E0120046E000E0220056E010166516C
:10178000096E6751E56E0950E56E0550E56E04502F
:10179000E56E0350E56EECEC1BF0050EE12604014E
:1017A0008151030A23E10050330F036E000E012024
:1017B000046E000E0220056E0B0E0326000E04229E
:1017C000052203C0E9FF04C0F3FF0550A4EC3CF080
:1017D000F3CF04F0F4CF05F00450036E0550046E0F
:1017E00003500101406F0450416F22D00050330F6D
:1017F000036E000E0120046E000E0220056E0B0E1B
:101800000326000E0422052203C0E9FF04C0F3FFF3
:101810000550A4EC3CF0F3CF04F0F4CF05F00450F5
:10182000036E0550046E03500101426F0450436F74
:1018300081C403F00350010A04E00350030A01E0ED
:101840007DD040C103F041C104F0E86A010141BF0D
:10185000FF0E056E096E01016251035C0101666FA6
:101860000101635104580101676F0101645105587A
:101870000101686F0101655109580101696F800F0D
:10188000800F08E1000E685D05E1800E675D02E1F2
:10189000000E665D07E3010166697F0E676F686B86
:1018A000696B14D001016951800F810F08E1FF0EAF
:1018B000685D05E1800E675D02E1000E665D06E28F
:1018C0000101666B800E676F686969690050440F9B
:1018D000036E000E0120046E000E0220056E010151
:1018E0006651096E6751E56E0950E56E0550E56E6B
:1018F0000450E56E0350E56EECEC1BF0050EE1269E
:10190000440E0026000E012202220B0E0026000EBD
:101910000122022200C0E9FF01C0F3FF0250A4EC43
:101920003CF0F3CF01F0F4CF02F00150006E025012
:10193000016E00500101426F0150436F0850086E64
:10194000E56A0D0EE56E800EE56E010EE56E400E49
:10195000E56E0850E56E0750E56E0650E56E8AECC0
:101960002FF0080EE126E4CF0DF0E4CF0CF0E4CF29
:101970000BF0E4CF0AF0E4CF09F0E4CF08F0E4CFB5
:1019800007F0E4CF06F0E4CF05F0E4CF04F0E4CFB5
:1019900003F0E4CF02F0E4CF01F0E4CF00F0E4CFB5
:1019A000D9FF120025642025640A000005C0E5FF68
:1019B00006C0E5FF07C0E5FF08C0E5FF09C0E5FF79
:1019C0000AC0E5FF0BC0E5FF0CC0E5FF0DC0E5FF59
:1019D0000EC0E5FF0FC0E5FF10C0E5FF11C0E5FF39
:1019E00012C0E5FF13C0E5FF14C0E5FF15C0E5FF19
:1019F00016C0E5FF17C0E5FF18C0E5FF19C0E5FFF9
:101A00001AC0E5FF1BC0E5FF1CC0E5FF1DC0E5FFD8
:101A1000000E00B0050F066AF60F02E3062AFCD797
:101A20000A0F056E042E03D0FB0F01E3062A0650B1
:101A300000B0020F00B2050F076AF60F02E3072A93
:101A4000FCD70A0F066E042E03D0FB0F01E3072A12
:101A5000075000B0060F00B2020F00B4050F086A6D
:101A6000F60F02E3082AFCD70A0F076E042E03D0F4
:101A7000FB0F01E3082A085000B2010F00B4020F67
:101A800000B6050F096AF60F02E3092AFCD70A0F10
:101A9000086E042E03D0FB0F01E3092A095000B0A1
:101AA000090F00B2080F00B4060F00B6020F00B80D
:101AB000050F0A6AF60F02E30A2AFCD70A0F096E1D
:101AC000042E03D0FB0F01E30A2A0A5000B0030FD3
:101AD00000B2070F00B4050F00B6010F00B8020FE7
:101AE00000BA050F0B6AF60F02E30B2AFCD70A0FA8
:101AF0000A6E042E03D0FB0F01E30B2A0B5000B03B
:101B0000050F00B4010F00B6030F00B8060F00BAAE
:101B1000020F00BC050F0C6AF60F02E30C2AFCD77B
:101B20000A0F0B6E042E03D0FB0F01E30C2A0C509E
:101B300000B0070F00B2050F00BA010F00BC020F82
:101B400000BE050F0D6AF60F02E30D2AFCD70A0F3F
:101B50000C6E042E03D0FB0F01E30D2A0D5000B0D4
:101B6000070F00B2050F00B4010F00B6020F00B856
:101B7000040F00BA080F00BC060F00BE020F01B030
:101B8000050F0E6AF60F02E30E2AFCD70A0F0D6E40
:101B9000042E03D0FB0F01E30E2A0E5000B0040FF9
:101BA00000B2090F00B4090F00B6080F00B8060F05
:101BB00000BA020F00BC050F00BE010F01B0020FFA
:101BC00001B2050F0F6AF60F02E30F2AFCD70A0FC6
:101BD0000E6E042E03D0FB0F01E30F2A0F5000B04E
:101BE000040F00B2080F00B4070F00B6050F00B8CD
:101BF000010F00BA030F00BC060F00BE030F01B0B7
:101C0000060F01B2020F01B4050F106AF60F02E3CE
:101C1000102AFCD70A0F0F6E042E03D0FB0F01E32E
:101C2000102A105000B0060F00B2020F00B4050FCA
:101C300000B6010F00B8030F00BA060F00BC020F78
:101C400000BE050F01B2010F01B4020F01B6050F6E
:101C5000116AF60F02E3112AFCD70A0F106E042E48
:101C600003D0FB0F01E3112A115000B0040F00B2A2
:101C7000090F00B4080F00B6070F00B8040F00BA30
:101C8000080F00BC070F00BE040F01B0090F01B21E
:101C9000080F01B4060F01B6020F01B8050F126A52
:101CA000F60F02E3122AFCD70A0F116E042E03D09E
:101CB000FB0F01E3122A125000B4010F00B6030F0C
:101CC00000B8070F00BA040F00BC090F00BE090FCF
:101CD00001B0080F01B2070F01B4050F01B6010FE3
:101CE00001B8020F01BA050F136AF60F02E3132AB7
:101CF000FCD70A0F126E042E03D0FB0F01E3132A48
:101D0000135000B0060F00B2020F00B4040F00B66B
:101D1000080F00B8060F00BA030F00BC060F00BE84
:101D2000030F01B0070F01B2050F01B4010F01B697
:101D3000030F01B8060F01BA020F01BC050F146AA8
:101D4000F60F02E3142AFCD70A0F136E042E03D0F9
:101D5000FB0F01E3142A145000B0090F00B2090F61
:101D600000B4080F00B6060F00B8030F00BA070F43
:101D700000BC040F00BE090F01B0080F01B2070F2D
:101D800001B4050F01BA010F01BC020F01BE050F1E
:101D9000156AF60F02E3152AFCD70A0F146E042EFB
:101DA00003D0FB0F01E3152A155000B0050F00B258
:101DB000010F00B4030F00B6070F00B8050F00BCF9
:101DC000010F00BE020F01B0050F01B2010F01B4F7
:101DD000030F01B6070F01B8040F01BA080F01BCC9
:101DE000060F01BE020F02B0050F166AF60F02E3DE
:101DF000162AFCD70A0F156E042E03D0FB0F01E341
:101E0000162A165000B2010F00B4020F00B6040FDC
:101E100000B8090F00BA090F00BC080F00BE060F7A
:101E200001B0020F01B2050F01B8010F01BA020F94
:101E300001BC050F01BE010F02B0020F02B2050F77
:101E4000176AF60F02E3172AFCD70A0F166E042E44
:101E500003D0FB0F01E3172A175000BA010F00BC93
:101E6000030F00BE070F01B0050F01B4010F01B64B
:101E7000020F01B8040F01BA080F01BC060F01BE22
:101E8000030F02B0060F02B2020F02B4050F186A68
:101E9000F60F02E3182AFCD70A0F176E042E03D0A0
:101EA000FB0F01E3182A185001B0010F01B2030F14
:101EB00001B4060F01B6020F01B8040F01BA080FF2
:101EC00001BC070F01BE050F02B2010F02B4020FE1
:101ED00002B6050F196AF60F02E3192AFCD70A0F9A
:101EE000186E042E03D0FB0F01E3192A195001B616
:101EF000010F01B8020F01BA040F01BC090F01BEA6
:101F0000090F02B0090F02B2080F02B4060F02B6A1
:101F1000020F02B8050F1A6AF60F02E31A2AFCD75D
:101F20000A0F196E042E03D0FB0F01E31A2A1A5070
:101F300001BE010F02B0030F02B2070F02B4050F7A
:101F400002B6010F02B8020F02BA050F1B6AF60FA4
:101F500002E31B2AFCD70A0F1A6E042E03D0FB0FD4
:101F600001E31B2A1B5002B4010F02B6030F02B893
:101F7000060F02BA020F02BC050F1C6AF60F02E33D
:101F80001C2AFCD70A0F1B6E042E03D0FB0F01E3A3
:101F90001C2A1C5002BA010F02BC020F02BE050F20
:101FA0001D6AF60F02E31D2AFCD70A0F1C6E042ED1
:101FB00003D0FB0F01E31D2A300FEE6E1B50300FD4
:101FC000EE6E1A50300FEE6E1950300FEE6E185044
:101FD000300FEE6E1750300FEE6E1650300FEE6E63
:101FE0001550300FEE6E1450300FEE6E1350300F50
:101FF000EE6E1250300FEE6E1150300FEE6E10502C
:10200000300FEE6E0F50300FEE6E0E50300FEE6E42
:102010000D50300FEE6E0C50300FEE6E0B50300F37
:10202000EE6E0A50300FEE6E0950300FEE6E085013
:10203000300FEE6E0750300FEE6E0650300FEE6E22
:102040000550300FEE6E170EE4CF1DF0E4CF1CF0FC
:10205000E4CF1BF0E4CF1AF0E4CF19F0E4CF18F08E
:10206000E4CF17F0E4CF16F0E4CF15F0E4CF14F08E
:10207000E4CF13F0E4CF12F0E4CF11F0E4CF10F08E
:10208000E4CF0FF0E4CF0EF0E4CF0DF0E4CF0CF08E
:10209000E4CF0BF0E4CF0AF0E4CF09F0E4CF08F08E
:1020A000E4CF07F0E4CF06F0E4CF05F0120000C063
:1020B000E5FF01C0E5FF02C0E5FF03C0E5FF04C086
:1020C000E5FF9AC100F09BC102F09CC104F004013D
:1020D000FB51E56EFA51E56EF951E56EF851E56E8A
:1020E000E56A0050E56EE56A0250E56EE56A045067
:1020F000E56E000EE56E330EE56E480EE56E9DEC66
:1021000038F00D0EE126000EE56AE56AE56A8CEC12
:1021100030F0006EF3CF01F0F4CF02F0E9CF03F01E
:10212000030EE1260401F851001824E1F9510118C9
:1021300021E1FA5102181EE1FB51031801E01AD007
:10214000E56AE56A800EE56E0F0EE56E230EE56E1C
:1021500042EC3AF0050EE126E56AE56A800EE56E8E
:10216000040EE56EE80EE56E42EC3AF0050EE1264F
:10217000ADEF13F0050EE56E000EE56AE56A8CEC36
:1021800030F0006EF3CF01F0F4CF02F0E9CF03F0AE
:10219000030EE1260401F851001825E1F951011858
:1021A00022E1FA5102181FE1FB51031801E01BD094
:1021B000E56AC80EE56E800EE56E0F0EE56E230E25
:1021C000E56E42EC3AF0050EE126E56AE56A800E1E
:1021D000E56E040EE56EE80EE56E42EC3AF0050E93
:1021E000E126ADEF13F00F0EE56E000EE56AE56A2D
:1021F0008CEC30F0006EF3CF01F0F4CF02F0E9CFB9
:1022000003F0030EE1260401F851001826E1F9510C
:10221000011823E1FA51021820E1FB51031801E0F3
:102220001CD0E56AC80EE56E800EE56E0F0EE56EF9
:10223000230EE56E42EC3AF0050EE126E56AC80E83
:10224000E56E800EE56E040EE56EE80EE56E42EC7E
:102250003AF0050EE126ADEF13F0140EE56E000E18
:10226000E56AE56A8CEC30F0006EF3CF01F0F4CF54
:1022700002F0E9CF03F0030EE1260401F851001843
:1022800025E1F951011822E1FA5102181FE1FB5131
:10229000031801E01BD0E56AE56A800EE56E0F0EBB
:1022A000E56E230EE56E42EC3AF0050EE126E56A96
:1022B000C80EE56E800EE56E040EE56EE80EE56E66
:1022C00042EC3AF0050EE126ADEF13F01E0EE56E7E
:1022D000000EE56AE56A8CEC30F0006EF3CF01F099
:1022E000F4CF02F0E9CF03F0030EE1260401F85128
:1022F000001825E1F951011822E1FA5102181FE1F5
:10230000FB51031801E01BD0E5689C0EE56E800EC2
:10231000E56E0F0EE56E230EE56E42EC3AF0050E0B
:10232000E126E56AE56A800EE56E040EE56EE80ECC
:10233000E56E42EC3AF0050EE126ADEF13F0280E03
:10234000E56E000EE56AE56A8CEC30F0006EF3CFC6
:1023500001F0F4CF02F0E9CF03F0030EE12604010F
:10236000F851001825E1F951011822E1FA5102183B
:102370001FE1FB51031801E01BD0E5686A0EE56E12
:10238000800EE56E0F0EE56E230EE56E42EC3AF020
:10239000050EE126E56A640EE56E800EE56E040E1C
:1023A000E56EE80EE56E42EC3AF0050EE126D5D179
:1023B000370EE56E000EE56AE56A8CEC30F0006ED3
:1023C000F3CF01F0F4CF02F0E9CF03F0030EE126E2
:1023D0000401F851001825E1F951011822E1FA51E0
:1023E00002181FE1FB51031801E01BD0E568060E3F
:1023F000E56E800EE56E0F0EE56E230EE56E42EC87
:102400003AF0050EE126E56AFA0EE56E800EE56EFD
:10241000040EE56EE80EE56E42EC3AF0050EE1269C
:102420009CD10A0EE56E010EE56E000EE56A8CEC9D
:1024300030F0006EF3CF01F0F4CF02F0E9CF03F0FB
:10244000030EE1260401F851001825E1F9510118A5
:1024500022E1FA5102181FE1FB51031801E01BD0E1
:10246000010EE56EC20EE56E800EE56E0F0EE56E96
:10247000230EE56E42EC3AF0050EE126E56AE56AC8
:10248000800EE56E040EE56EE80EE56E42EC3AF065
:10249000050EE12662D11E0EE56E010EE56E000E00
:1024A000E56A8CEC30F0006EF3CF01F0F4CF02F06F
:1024B000E9CF03F0030EE1260401F851001825E1ED
:1024C000F951011822E1FA5102181FE1FB510318DA
:1024D00001E01BD0E56AE56A800EE56E0F0EE56E41
:1024E000230EE56E42EC3AF0050EE126010EE56E94
:1024F000C20EE56E800EE56E040EE56EE80EE56E2A
:1025000042EC3AF0050EE12628D1320EE56E010EBE
:10251000E56E000EE56A8CEC30F0006EF3CF01F052
:10252000F4CF02F0E9CF03F0030EE1260401F851E5
:10253000001823E1F951011820E1FA5102181DE1B8
:10254000FB51031801E019D0E56AE56A800EE56EDB
:102550000F0EE56E230EE56E42EC3AF0050EE12615
:10256000E56AE56A800EE56E040EE56EE80EE56E3E
:1025700042EC3AF0050EE126F0D0140EE56E020EA4
:10258000E56E000EE56A8CEC30F0006EF3CF01F0E2
:10259000F4CF02F0E9CF03F0030EE1260401F85175
:1025A000001826E1F951011823E1FA51021820E13F
:1025B000FB51031801E01CD0FC0EE56E010EE56E28
:1025C000800EE56E0F0EE56E230EE56E42EC3AF0DE
:1025D000050EE126030EE56EE568800EE56E040E3D
:1025E000E56EE80EE56E42EC3AF0050EE126B5D058
:1025F000230EE56E020EE56E000EE56A8CEC30F0FF
:10260000006EF3CF01F0F4CF02F0E9CF03F0030E38
:10261000E1260401F851001826E1F951011823E1DF
:10262000FA51021820E1FB51031801E01CD0030EFF
:10263000E56EE568800EE56E0F0EE56E230EE56E25
:1026400042EC3AF0050EE126FC0EE56E010EE56E59
:10265000800EE56E040EE56EE80EE56E42EC3AF093
:10266000050EE1267AD0320EE56E020EE56E000E02
:10267000E56A8CEC30F0006EF3CF01F0F4CF02F09D
:10268000E9CF03F0030EE1260401F851001823E11D
:10269000F951011820E1FA5102181DE1FB5103180C
:1026A00001E019D0E56AE56A800EE56E0F0EE56E71
:1026B000230EE56E42EC3AF0050EE126E56AE56A86
:1026C000800EE56E040EE56EE80EE56E42EC3AF023
:1026D000050EE12642D0140EE56E030EE56E000EE7
:1026E000E56A8CEC30F0006EF3CF01F0F4CF02F02D
:1026F000E9CF03F0030EE1260401F85100180DE1C3
:10270000F95101180AE1FA51021807E1FB510318C7
:1027100001E003D0D0EC3EF020D0E56A3C0EE56E3F
:10272000000EE56A8CEC30F0006EF3CF01F0F4CFD0
:1027300002F0E9CF03F0030EE1260401F85100187E
:102740000CE1F951011809E1FA51021806E1FB51B7
:10275000031801E002D0D0EC3EF0E4CF04F0E4CF67
:1027600003F0E4CF02F0E4CF01F0E4CF00F0120078
:1027700000C0E5FF01C0E5FF02C0E5FF03C0E5FFC3
:10278000D2EC2CF028EC25F069EC3BF0006EF3CF96
:1027900001F0F4CF02F0E9CF03F004018A51005EAA
:1027A0008B51015A8C51025A8D51035A039E3F0E90
:1027B000035C08E1FF0E025C05E1FF0E015C02E133
:1027C000FF0E005CD8B0AAEF16F069EC3BF0F3CF37
:1027D00001F0F4CF02F0E9CF03F0880F04018A6F13
:1027E000130E01208B6F000E02208C6F000E032051
:1027F0008D6FADEC19F0800EE56E0F0EE56E230EB9
:10280000E56E0EEC00F0030EE126800EE56E040E80
:10281000E56EE80EE56E0EEC00F0030EE126D890B2
:102820000F012731016E2631006ED890013200323F
:102830002851E840E840C00B01122841E8403F0B16
:10284000E8BAC009036A005004019E6F01509F6FEF
:10285000D8900401EC31016EEB31006ED89001325A
:102860000032ED51E840E840C00B0112ED41E84074
:102870003F0B00500A010B6F01500C6F000EE56A10
:1028800032EC3CF0006EF3CF01F0E652E86A01BE94
:10289000FF0E026E800F800F08E1000E025C05E162
:1028A000020E015C02E13B0E005C06E30A0E04012D
:1028B0005E5D06E25E2B04D004015E5101E05E071E
:1028C000010EE56E32EC3CF0006EF3CF01F0E65203
:1028D000E86A01BEFF0E026E800F800F08E1000E55
:1028E000025C05E1020E015C02E13B0E005C06E3C6
:1028F0000A0E04015F5D06E25F2B04D004015F5104
:1029000001E05F0704015E5103E18986898206D0F8
:1029100004015E510A0A02E18996899204015F511D
:1029200003E18A828A8806D004015F510A0A02E123
:102930008A928A9882A41AD0E56AE56A800EE56ECA
:102940000F0EE56E230EE56E42EC3AF0050EE12621
:10295000E56AE56A800EE56E040EE56EE80EE56E4A
:1029600042EC3AF0050EE126D0EC3EF005C0E5FF62
:10297000F2CF05F0F29E0401A95101014D6F04014F
:10298000AA5101014E6F0401AB5101014F6F0401C7
:10299000AC510101506F0401AD510101516F0401AF
:1029A000AE510101526F0401AF510101536F040197
:1029B000B0510101546F0401B1510101556F04017F
:1029C000B2510101566F0401B3510101576F040167
:1029D000B4510101586F0401B5510101596F04014F
:1029E000AD6BAE6BAF6BB06B05BEF28EE4CF05F096
:1029F000800EE56E040EE56E930EE56E44EC09F074
:102A0000030EE1269EC496F19FC497F101019751F0
:102A1000800F7C0F02E1000E965D04E301019669D0
:102A2000030E976F01019751800F840F02E1010E91
:102A3000965D05E2010E0101966FFC0E976F010194
:102A40009751800F800F02E1010E965D10E30101A6
:102A50009751800FF36E04019751800FF35C03E1EF
:102A600096510101965D03E20101966B976BD88048
:102A7000010197AFD89015E30401971D016E961DD3
:102A8000006E004A012A0150800FF36E0101975138
:102A9000800FF35C02E19651005C03E20101966B4A
:102AA000976B0401B5A507D0D880010197AFD890E6
:102AB00002E3966B976BD880010197AFD89007E33C
:102AC000971D016E961D006E004A012A04D096C122
:102AD00000F097C101F000C098F101C099F1010127
:102AE0009851020BE840010BE838E844F46E0F01FE
:102AF0005451DF0BF410546F01019851010B010B7D
:102B0000E838F46E0F015451EF0BF410546F0101CB
:102B100099359931016E9831006E013401320032DD
:102B200000500F01556FD880010197AFD89003E393
:102B3000899A898002D08990898A05C0E5FFF2CF01
:102B400005F0F29E0A01165101014D6F0A0117515D
:102B500001014E6F0A01185101014F6F0A0119510D
:102B60000101506F0A011A510101516F0A011B51F5
:102B70000101526F0A011C510101536F0A011D51DD
:102B80000101546F0A011E510101556F0A011F51C5
:102B90000101566F0A0120510101576F0A012151AD
:102BA0000101586F0A0122510101596F0A011A6B84
:102BB0001B6B1C6B1D6B05BEF28EE4CF05F0800E07
:102BC000E56E0A0EE56E000EE56E44EC09F0030EAC
:102BD000E1260BCA96F10CCA97F101019751800FBB
:102BE0007C0F02E1000E965D04E301019669030E7D
:102BF000976F01019751800F840F02E1010E965DDE
:102C000005E2010E0101966FFC0E976F01019751CD
:102C1000800F800F02E1010E965D10E301019751D4
:102C2000800FF36E0A010451800FF35C03E103513E
:102C30000101965D03E20101966B976BD88001015B
:102C400097AFD89015E30A01041D016E031D006EB5
:102C5000004A012A0150800FF36E01019751800F45
:102C6000F35C02E19651005C03E20101966B976B05
:102C70000A0122A507D0D880010197AFD89002E3BE
:102C8000966B976BD880010197AFD89007E3971D9B
:102C9000016E961D006E004A012A04D096C100F014
:102CA00097C101F000C098F101C099F1010198515C
:102CB000020BE840010BE838E844F46EBD50DF0B2E
:102CC000F410BD6E9851010B010BE838F46EBD5045
:102CD000EF0BF410BD6E99359931016E9831006E8D
:102CE0000134013200320050BE6ED880010197AF2E
:102CF000D89003E38A908A8A02D08A9A8A805CC438
:102D000000F05DC401F004015C3F01D05D2B005078
:102D10000A0A02E1015001E01DD004015C6B5D6B09
:102D2000006A82B4002AE56A0050E56E0A010C517F
:102D3000E56E0B51E56E04019F51E56E9E51E56E07
:102D4000000EE56E330EE56E340EE56E9DEC38F048
:102D5000090EE12669EC3BF0006EF3CF01F0F4CFF1
:102D600002F0E9CF03F004018E51005E8F51015A49
:102D70009051025A9151035A039E3F0E035C08E1A1
:102D8000FF0E025C05E1FF0E015C02E1FF0E005C3C
:102D90002CE269EC3BF0F3CF01F0F4CF02F0E9CF85
:102DA00003F0400F04018E6F420E01208F6F0F0E53
:102DB0000220906F000E0320916F0401F82B05E3B1
:102DC000F92B03E3FA3F01D0FB2B01019A2B3C0EB8
:102DD0009A5D09E39A6B01019B2B3C0E9B5D03E31B
:102DE0009B6B01019C2B57EC10F0E4CF03F0E4CF78
:102DF00002F0E4CF01F0E4CF00F0120000C0E5FFE4
:102E000001C0E5FF02C0E5FF03C0E5FF05C0E5FF27
:102E10002AEC3FF094928B9269EC3BF0F3CF01F0F7
:102E2000F4CF02F0E9CF03F0880F04018A6F130E8C
:102E300001208B6F000E02208C6F000E03208D6F1F
:102E400069EC3BF0F3CF01F0F4CF02F0E9CF03F0EF
:102E5000400F04018E6F420E01208F6F0F0E022073
:102E6000906F000E0320916F83EC31F09284800EFE
:102E7000006E0F0E016E0F0E036E380E002603500B
:102E80000122800E026E0F0E036E800E005E035054
:102E9000015A0F0E056E380E0226055003220F0E42
:102EA000056E800E025E0550035A02C0E9FF03C0A2
:102EB000EAFFEFCF02F0028400C0E9FF01C0EAFFA1
:102EC00002C0EFFF020EE56E000EE56A92EC35F0EF
:102ED000E652E6529386810E006E0F0E016E0F0EC3
:102EE000036E380E0026035001220F0E036E800E73
:102EF000005E0350015A810E026E0F0E036E0F0E1C
:102F0000056E380E0226055003220F0E056E800E48
:102F1000025E0550035A02C0E9FF03C0EAFFEFCF8B
:102F200002F0028600C0E9FF01C0EAFF02C0EFFF25
:102F3000090EE56E010EE56E92EC35F0E652E652B2
:102F4000899A899089868982929A92909296929291
:102F500004019283800E006E040E016E0F0E036E4C
:102F6000380E0026035001220F0E036E800E005E05
:102F70000350015A800E026E040E036E0F0E056E92
:102F8000380E0226055003220F0E056E800E025EDB
:102F90000550035A02C0E9FF03C0EAFFEFCF02F079
:102FA000029200C0E9FF01C0EAFF02C0EFFF928376
:102FB000800E006E040E016E0F0E036E380E00269A
:102FC000035001220F0E036E800E005E0350015A63
:102FD000800E026E040E036E0F0E056E380E022672
:102FE000055003220F0E056E800E025E0550035A37
:102FF00002C0E9FF03C0EAFFEFCF02F0029200C077
:10300000E9FF01C0EAFF02C0EFFF9283800E006E6D
:10301000040E016E0F0E036E380E002603500122BF
:103020000F0E036E800E005E0350015A800E026E7A
:10303000040E036E0F0E056E380E02260550032295
:103040000F0E056E800E025E0550035A02C0E9FFA6
:1030500003C0EAFFEFCF02F0029200C0E9FF01C017
:10306000EAFF02C0EFFF0C0E0F01546F0F01549BDB
:1030700054990F01556B92980401936B020E946F53
:10308000956B0A0E966F976B100E986F070E996FDF
:103090009A6B800EE56E040EE56EB60EE56E92EC50
:1030A00036F0030EE126800EE56E040EE56ED70EB7
:1030B000E56E1EEC2BF0030EE126800EE56E040E8D
:1030C000E56EC60EE56E1EEC2BF0030EE126040144
:1030D000B16BB26BB36BB46BB591B5959C6B9D6BDB
:1030E0009E6B9F6BA46BA56BA66BA76B8A908A9A4D
:1030F0008A828A889390939A9392939804019283F8
:10310000800E006E040E016E0F0E036E380E002648
:10311000035001220F0E036E800E005E0350015A11
:10312000800E026E040E036E0F0E056E380E022620
:10313000055003220F0E056E800E025E0550035AE5
:1031400002C0E9FF03C0EAFFEFCF02F0029200C025
:10315000E9FF01C0EAFF02C0EFFF9283800E006E1C
:10316000040E016E0F0E036E380E0026035001226E
:103170000F0E036E800E005E0350015A800E026E29
:10318000040E036E0F0E056E380E02260550032244
:103190000F0E056E800E025E0550035A02C0E9FF55
:1031A00003C0EAFFEFCF02F0029200C0E9FF01C0C6
:1031B000EAFF02C0EFFF9283800E006E040E016EE4
:1031C0000F0E036E380E0026035001220F0E036E01
:1031D000800E005E0350015A800E026E040E036ED4
:1031E0000F0E056E380E0226055003220F0E056ED7
:1031F000800E025E0550035A02C0E9FF03C0EAFFD9
:10320000EFCF02F0029200C0E9FF01C0EAFF02C066
:10321000EFFF0C0EBD6EBD9ABD98BE6AB96AB98249
:1032200093940A01006B020E016F026B0A0E036F8A
:10323000046B100E056F070E066F076B800EE56EB0
:103240000A0EE56E230EE56E92EC36F0030EE126D3
:10325000800EE56E0A0EE56E440EE56E1EEC2BF058
:10326000030EE126800EE56E0A0EE56E330EE56E66
:103270001EEC2BF0030EE1260A011E6B1F6B206B68
:10328000216B22912295096B0A6B0B6B0C6B116BF6
:10329000126B136B146B800EE56E0F0EE56E230E32
:1032A000E56E92EC36F0030EE126800EE56E040E1C
:1032B000E56EE80EE56E92EC36F0030EE12694849E
:1032C000820E006E0F0E016E0F0E036E380E00267A
:1032D000035001220F0E036E800E005E0350015A50
:1032E000820E026E0F0E036E0F0E056E380E022652
:1032F000055003220F0E056E800E025E0550035A24
:1033000002C0E9FF03C0EAFFEFCF02F0029400C061
:10331000E9FF01C0EAFF02C0EFFF11EC3FF0E4CF8C
:1033200005F0E4CF03F0E4CF02F0E4CF01F0E4CF06
:1033300000F01200432050202564202564202564DD
:103340000A00430025630000432054202564202503
:103350006420256420256C640A0000C0E5FF01C0DC
:10336000E5FF02C0E5FF03C0E5FF04C0E5FF05C0BF
:10337000E5FF06C0E5FF07C0E5FF08C0E5FF09C09F
:10338000E5FF0AC0E5FF0BC0E5FF006A016A040E15
:10339000015CD8B0E8D104016E2B100E6E5D01E324
:1033A0006E6B04016E39E8441F0B026E036A900EC7
:1033B0000226010E032202C0E9FF03C0EAFFEFCF9D
:1033C00002F0070E6E15036E010E046E000E056E00
:1033D000035006E0E86CD89004360536010FFCE394
:1033E000066A0250041606500516045005E1055001
:1033F00003E1046A042A01D0046A0450D880E86614
:10340000D890046A04360450D8B4C1D704016E5170
:10341000020DF450036EF3CF02F0E00E0224046EAE
:10342000000E0320056E04C0E9FF05C0EAFFEECFE1
:1034300004F0EFCF05F004016BA19DD0950E02249E
:10344000066E0A0E0320076E06C0E9FF07C0EAFFFA
:10345000EECF06F0EFCF07F00550800FF36E075068
:10346000800FF35C02E10650045C03E2046A056A23
:1034700060D0B50E02260A0E032202C0E9FF03C087
:10348000EAFFEECF02F0EFCF03F00350800FF36EB0
:103490000550800FF35C02E10450025C04E2046812
:1034A0003F0E056E46D00650045C086E0750055866
:1034B000096EE86A09BEFF0E0A6EE56E0A50E56EF7
:1034C0000950E56E0850E56EE56AE56A400EE56E66
:1034D000000EE56A67EC27F0086EF3CF09F0F4CF31
:1034E0000AF0E9CF0BF0080EE1260650025C066EEA
:1034F00007500358076EE86A07BEFF0E026EE56EBE
:103500000250E56E0750E56E0650E56E0B50E56E15
:103510000A50E56E0950E56E0850E56EECEC2DF0B2
:10352000026EF3CF03F0080EE1260250046E035042
:10353000056E04016A51800FF36E0550800FF35C35
:1035400002E10450695D03E3046A056A14D00401D2
:103550006951FF08026E3F0E6A55036E0550800FD9
:10356000F36E0350800FF35C02E10250045C03E34E
:1035700004683F0E056E04016E51020DF450036E97
:10358000F3CF02F0750E02260A0E032202C0E9FFF5
:1035900003C0EAFFEECF02F0EFCF03F00250045C6D
:1035A000026E03500558036ED88003AED89004E332
:1035B000031E026CD8B4032A012A04016A51800F49
:1035C000F36E0350800FF35C02E10250695DD8B0E6
:1035D000DED604016E51020DF450076EF3CF06F0F3
:1035E000750E06260A0E072206C0E9FF07C0EAFF8D
:1035F00004C0EEFF05C0EFFF04016BA55AD0040123
:103600006E51020DF450076EF3CF06F0D50E06246E
:10361000086E0A0E0720096E08C0E9FF09C0EAFF1C
:10362000EECF0AF0EFCF0BF00A500B10D8B441D018
:10363000550E06260A0E072206C0E9FF07C0EAFF5C
:10364000EECF06F0EFCF07F00650045C026E075095
:103650000558036E02101CE00350800F800F02E13A
:10366000010E025C066A06360B50800F800F02E1E5
:10367000010E0A5C0A6A0A3606500A1809E108C0F7
:10368000E9FF09C0EAFF02C0EEFF03C0EFFF7FD6EB
:1036900004016E51020DF450036EF3CF02F0D50E0B
:1036A00002260A0E032202C0E9FF03C0EAFFEE6A07
:1036B000EF6A04016BA343D000500EE100C002F09A
:1036C000002A036A6F0E0226040E032202C0E9FFDD
:1036D00003C0EAFF420EEF6E00C002F0002A036A48
:1036E0006F0E0226040E0322640E04016E25066E80
:1036F00002C0E9FF03C0EAFF06C0EFFF00C002F00E
:10370000002A036A6F0E0226040E03220550066E7D
:1037100002C0E9FF03C0EAFF06C0EFFF00C002F0ED
:10372000002A036A6F0E0226040E03220450066E5E
:1037300002C0E9FF03C0EAFF06C0EFFF28D66EC44F
:1037400002F00550E56E0450E56EE56A0250E56E44
:10375000000EE56E630EE56EEE0EE56E9DEC38F044
:10376000070EE12614D600501DE004016BA31AD009
:1037700000C002F0002A036A6F0E0226040E032224
:1037800002C0E9FF03C0EAFF0A0EEF6E0050E56ECB
:10379000800EE56E040EE56E6F0EE56E08EC31F0FE
:1037A000040EE1260150E4CF0BF0E4CF0AF0E4CFA1
:1037B00009F0E4CF08F0E4CF07F0E4CF06F0E4CF5F
:1037C00005F0E4CF04F0E4CF03F0E4CF02F0E4CF5F
:1037D00001F0E4CF00F01200D9CFE5FFE1CFD9FF2F
:1037E00000C0E5FF01C0E5FF02C0E5FF03C0E5FF43
:1037F00004C0E5FF05C0E5FF06C0E5FF07C0E5FF23
:1038000008C0E5FF09C0E5FF0AC0E5FF0BC0E5FF02
:10381000020EDBCF00F0030EDBCF01F0040EDBCF96
:1038200002F0050EDBCF03F0060EDBCF04F00250F2
:103830000A6E0150096E0050086EE56A110EE56EC1
:103840000A50E56E0950E56E0850E56E800EE56E93
:10385000040EE56E240EE56E8AEC2FF0080EE126CC
:1038600033C405F034C406F0E86A040134BFFF0E27
:10387000076E0101716F0650706F05506F6F6E6BB0
:1038800003C005F004C006F0E86A04BEFF0E076E30
:10389000086E24C409F0E56AE56AE56A0950E56E38
:1038A0000850E56E0750E56E0650E56E0550E56E72
:1038B00067EC27F001016A6FF3CF6BF1F4CF6CF185
:1038C000E9CF6DF1080EE12604012551D8B4AFD03F
:1038D0000450800F800F02E1010E035C25E3040118
:1038E0002A51800F7C0F08E1000E295D05E1000ED2
:1038F000285D02E1000E275D17E204013251800FBE
:10390000F36E01017151800FF35C0DE17051040100
:10391000315D09E101016F510401305D04E10101F4
:103920006E5104012F5D33E3D88004AED890D8A047
:1039300043D004012A51800F840F08E1000E295D55
:1039400005E1000E285D02E1010E275D35E301016E
:10395000711D0A6E701D096E6F1D046E6E1D036E63
:10396000032A04E1042A02E1094A0A2A0A50800FC4
:10397000F36E04013251800FF35C08E13151095CB0
:1039800005E13051045C02E12F51035C15E2055062
:1039900004012725036E06502821046E07502921B3
:1039A000096E08502A210A6E0350276F0450286FB1
:1039B0000950296F0A502A6F040127390F0B036E33
:1039C0002839046EF00B041A03262951E838F00B4D
:1039D000041229390F0B096E2A390A6EF00B0A1AE4
:1039E0000926F00E0AB60A2625C40BF0E56AE56A38
:1039F000E56A0B50E56E0A50E56E0950E56E04501D
:103A0000E56E0350E56E67EC27F0036EF3CF04F02C
:103A1000F4CF09F0E9CF0AF0080EE12603500101C6
:103A20006A2704506B2309506C230A506D2304014C
:103A30002651D8B46CD02B51055C0101726F040182
:103A40002C5106580101736F04012D5107580101D3
:103A5000746F04012E5108580101756F800F800F9B
:103A600008E1010E745D05E1000E735D02E1000ED8
:103A7000725D07E3FF0E0101726F736F746B756BFC
:103A800014D001017551800F810F08E1FF0E745DA4
:103A900005E1000E735D02E1000E725D06E20101B8
:103AA000726B736BFF0E746F756F0101753174313A
:103AB0000A6E096A09327351E8407F0B09127331AB
:103AC0007231046E036A033226C40BF0E56AE56ABC
:103AD000E56A0B50E56E0A50E56E0950E56E04503C
:103AE000E56E0350E56E67EC27F0036EF3CF04F04C
:103AF000F4CF09F0E9CF0AF0080EE12603500101E6
:103B00006A2704506B2309506C230A506D2305501B
:103B100004012B6F06502C6F07502D6F08502E6F2D
:103B200001017151800FF36E01016D51800FF35C43
:103B30000DE16C510101705D09E101016B51010161
:103B40006F5D04E101016A5101016E5D11E2010145
:103B50006E5104012F6F01016F510401306F01019B
:103B600070510401316F010171510401326F3AD07B
:103B70000101711D066E701D056E6F1D046E6E1DB8
:103B8000036E032A04E1042A02E1054A062A010120
:103B90006D51800FF36E0650800FF35C08E1055005
:103BA0006C5D05E104506B5D02E103506A5D0AE261
:103BB000035004012F6F0450306F0550316F0650D1
:103BC000326F10D001016A5104012F6F01016B5156
:103BD0000401306F01016C510401316F01016D511D
:103BE0000401326FE56A110EE56E800EE56E040E7B
:103BF000E56E240EE56E0250E56E0150E56E005054
:103C0000E56E8AEC2FF0080EE126E4CF0BF0E4CF4E
:103C10000AF0E4CF09F0E4CF08F0E4CF07F0E4CFF6
:103C200006F0E4CF05F0E4CF04F0E4CF03F0E4CFF6
:103C300002F0E4CF01F0E4CF00F0E4CFD9FF1200AE
:103C4000D9CFE5FFE1CFD9FF00C0E5FF01C0E5FF17
:103C500002C0E5FF03C0E5FF04C0E5FF05C0E5FFC6
:103C600006C0E5FF07C0E5FF08C0E5FF09C0E5FFA6
:103C70000AC0E5FF020EDBCF00F0030EDBCF01F040
:103C8000040EDBCF02F0036A046A93EC3BF0056E8E
:103C9000FE0A01E078D03EEC36F093EC3BF0066E85
:103CA000030E065CD8A05BD0060E065CD8B057D0D9
:103CB000FD0E0624076EFA6AFB6A0734FA36E8340A
:103CC000FA36FC0BD40FE56E3C0EFA22000EFB22F6
:103CD000E450F96E70EF1EF082EF1EF09BEF1EF0C5
:103CE0000050090F076E000E0120086E000E022022
:103CF00007C0E9FF08C0F3FFDDEC3DF0036EF3CF32
:103D000004F02DD00050090F076E000E0120086E40
:103D1000000E0220096E020E0726000E082209225C
:103D200007C0E9FF08C0F3FF0950DDEC3DF0036E6A
:103D3000F3CF04F014D00050070F076E000E0120DF
:103D4000086E000E022007C0E9FF08C0F3FF68EC10
:103D50003EF0076E07C003F0046A07BE046806C0A1
:103D600007F00450E56E0350E56EE56A0750E56E16
:103D7000000EE56E190EE56EA40EE56E9DEC38F0B2
:103D8000070EE1262BD1070E055CD8B027D1FA6AC1
:103D9000FB6A0534FA36E834FA36FC0BAC0FE56EF4
:103DA0003D0EFA22000EFB22E450F96EE4EF1EF005
:103DB000FFEF1EF011EF1FF023EF1FF055EF1FF084
:103DC0008BEF1FF0A1EF1FF00050230F036E000ECA
:103DD0000120046E000E0220E56E0450E56E0350D3
:103DE000E56E5DEC21F0030EE126020EE56E00C0EB
:103DF000E9FF01C0F3FF0250F2EC3EF0EFD00050BB
:103E0000330F036E000E0120046E000E0220E56EDB
:103E10000450E56E0350E56EEAEC23F0030EE12654
:103E2000DDD00050440F036E000E0120046E000E22
:103E30000220E56E0450E56E0350E56EEAEC23F0D7
:103E4000030EE126CBD00050090F036E000E0120B7
:103E5000046E000E0220056E93EC3BF00A6E096AB8
:103E6000E56A0AC0F4FF03C0E9FF04C0F3FF055090
:103E7000C3EC3EF093EC3BF0086A092608500A2296
:103E800009C0E5FF0AC0F4FF03C0E9FF04C0F3FF67
:103E90000550C3EC3EF0010EE56E00C0E9FF01C025
:103EA000F3FF0250F2EC3EF099D00050090F036E80
:103EB000000E0120046E000E0220056E020E032685
:103EC000000E0422052293EC3BF00A6E096AE56AB3
:103ED0000AC0F4FF03C0E9FF04C0F3FF0550C3ECC0
:103EE0003EF093EC3BF0086A092608500A2209C00C
:103EF000E5FF0AC0F4FF03C0E9FF04C0F3FF05506B
:103F0000C3EC3EF0E56A00C0E9FF01C0F3FF0250D8
:103F1000F2EC3EF063D00050070F036E000E01205C
:103F2000046E000E0220056E93EC3BF0076E07C096
:103F3000E5FF03C0E9FF04C0F3FF0550F2EC3EF0DB
:103F40004DD093EC3BF0066E0050160F036E000E42
:103F50000120046E000E0220056E03500C0F076E48
:103F6000000E0420086E000E0520096E0650010B9D
:103F7000F46E07C0E9FF08C0F3FF095068EC3EF09B
:103F8000FE0BF410E56E07C0E9FF08C0F3FF09500F
:103F9000F2EC3EF00650010A21E1080E0326000E65
:103FA00004220522E56AF46AF66AF76A03C0E9FFAB
:103FB00004C0F3FF055079EC3EF0230E0026000EFE
:103FC00001220222E56AE56A0250E56E0150E56EC3
:103FD0000050E56E5FEC2DF0050EE126E4CF0AF00F
:103FE000E4CF09F0E4CF08F0E4CF07F0E4CF06F027
:103FF000E4CF05F0E4CF04F0E4CF03F0E4CF02F027
:10400000E4CF01F0E4CF00F0E4CFD9FF120000C00C
:10401000E5FF01C0E5FF02C0E5FF03C0E5FF04C006
:10402000E5FF05C0E5FF06C0E5FF07C0E5FF08C0E6
:10403000E5FF09C0E5FF0AC0E5FF0BC0E5FF0CC0C6
:10404000E5FF0DC0E5FF0EC0E5FF000E00B0010F5B
:1040500000B2020F00B4040F00B6080F00B8060F3C
:1040600000BA020F00BC040F00BE080F01B0060F1B
:1040700001B2020F01B4040F01B6080F01B8060F18
:1040800001BA020F01BC040F01BE080F02B0060FF7
:1040900002B2020F02B4040F02B6080F02B8060FF4
:1040A00002BA020F02BC040F02BE080F056AF60F27
:1040B00002E3052AFCD70A0F046E055000B8010F71
:1040C00000BA030F00BC060F00BE020F01B0050FBF
:1040D00001B2010F01B4020F01B6040F01B8090FBC
:1040E00001BA090F01BC080F01BE060F02B0030F91
:1040F00002B2070F02B4040F02B6080F02B8070F8E
:1041000002BA050F066AF60F02E3062AFCD70A0F69
:10411000056E065000BE010F01B0020F01B2050F7F
:1041200001BA010F01BC030F01BE070F02B0050F5A
:1041300002B4010F02B6020F02B8050F02BA010F56
:1041400002BC030F02BE060F076AF60F02E3072A3E
:10415000FCD70A0F066E075001B4010F01B6020F1B
:1041600001B8040F01BA080F01BC060F01BE020F0F
:1041700002B0050F02B2010F02B4020F02B6040F23
:1041800002B8080F02BA070F02BC040F02BE080FE4
:10419000086AF60F02E3082AFCD70A0F076E0850D8
:1041A00001BC010F01BE030F02B0060F02B2030FE4
:1041B00002B4060F02B6020F02B8040F02BA090FCA
:1041C00002BC090F02BE080F096AF60F02E3092AB2
:1041D000FCD70A0F086E095002B2010F02B4020F99
:1041E00002B6050F02BC010F02BE030F0A6AF60FEA
:1041F00002E30A2AFCD70A0F096E0A5002B8010F1F
:1042000002BA020F02BC040F02BE080F0B6AF60FBF
:1042100002E30B2AFCD70A0F0A6E0B500E6A0EE15E
:104220000A5010E1095012E1085014E1075016E15C
:10423000065018E105501AE104501CD00E2A300F28
:10424000EE6E0A500E2A300FEE6E09500E2A300F15
:10425000EE6E08500E2A300FEE6E07500E2A300F09
:10426000EE6E06500E2A300FEE6E05500E2A300FFD
:10427000EE6E04500E2A300FEE6E0E50E4CF0EF0AC
:10428000E4CF0DF0E4CF0CF0E4CF0BF0E4CF0AF074
:10429000E4CF09F0E4CF08F0E4CF07F0E4CF06F074
:1042A000E4CF05F0E4CF04F0E4CF03F0E4CF02F074
:1042B000E4CF01F0E4CF00F01200D9CFE5FFE1CF69
:1042C000D9FF00C0E5FF01C0E5FF02C0E5FF03C064
:1042D000E5FF04C0E5FF05C0E5FF06C0E5FF07C038
:1042E000E5FF08C0E5FF09C0E5FF0AC0E5FF0BC018
:1042F000E5FF020EDBCF00F0030EDBCF01F0040E72
:10430000DBCF02F0036A046A93EC3BF0056EFE0A11
:1043100001E063D03EEC36F093EC3BF0066E0650C5
:104320000AE00650010A19E00650020A28E0065089
:104330000A0A37E040D00050060F076E000E012039
:10434000086E000E022007C0E9FF08C0F3FFDDEC95
:104350003DF0036EF3CF04F02ED000500C0F076E2B
:10436000000E0120086E000E022007C0E9FF08C001
:10437000F3FFDDEC3DF0036EF3CF04F01CD00050F2
:104380000E0F076E000E0120086E000E022007C0FF
:10439000E9FF08C0F3FFDDEC3DF0036EF3CF04F05E
:1043A0000AD000C0E9FF01C0F3FF0250DDEC3DF090
:1043B000036EF3CF04F00450E56E0350E56EE56A3A
:1043C0000650E56E000EE56E6D0EE56EC20EE56EF2
:1043D0009DEC38F0070EE126A1D005500CE0055009
:1043E000010A32E00550020A01E157D005500A0ADD
:1043F00001E17CD093D00050060F056E000E012025
:10440000066E000E0220076E93EC3BF00B6E0A6AFC
:10441000E56A0BC0F4FF05C0E9FF06C0F3FF0750D3
:10442000C3EC3EF093EC3BF0096A0A2609500B22DC
:104430000AC0E5FF0BC0F4FF05C0E9FF06C0F3FFAB
:104440000750C3EC3EF06AD000500C0F056E000E12
:104450000120066E000E0220076E93EC3BF00B6EFF
:104460000A6AE56A0BC0F4FF05C0E9FF06C0F3FF66
:104470000750C3EC3EF093EC3BF0096A0A26095062
:104480000B220AC0E5FF0BC0F4FF05C0E9FF06C020
:10449000F3FF0750C3EC3EF041D000500E0F056E05
:1044A000000E0120066E000E0220076E93EC3BF01A
:1044B0000B6E0A6AE56A0BC0F4FF05C0E9FF06C08F
:1044C000F3FF0750C3EC3EF093EC3BF0096A0A2679
:1044D00009500B220AC0E5FF0BC0F4FF05C0E9FF3D
:1044E00006C0F3FF0750C3EC3EF018D093EC3BF04E
:1044F000046E036A93EC3BF0066A0326065004221E
:104500000450E56E0350E56E0250E56E0150E56E15
:104510000050E56E42EC3AF0050EE126E4CF0BF0D8
:10452000E4CF0AF0E4CF09F0E4CF08F0E4CF07F0DD
:10453000E4CF06F0E4CF05F0E4CF04F0E4CF03F0DD
:10454000E4CF02F0E4CF01F0E4CF00F0E4CFD9FFF4
:104550001200800EE56E0A0EE56EB50EE56E34ECC7
:1045600037F0030EE126800EE56E0A0EE56E950E1D
:10457000E56E34EC37F0030EE126800EE56E0A0E90
:10458000E56EB70EE56E34EC37F0030EE126800ED3
:10459000E56E0A0EE56E970EE56E34EC37F0030E0D
:1045A000E126800EE56E0A0EE56EB90EE56E34EC7E
:1045B00037F0030EE126800EE56E0A0EE56E990EC9
:1045C000E56E34EC37F0030EE126800EE56E0A0E40
:1045D000E56EBB0EE56E34EC37F0030EE126800E7F
:1045E000E56E0A0EE56E9B0EE56E34EC37F0030EB9
:1045F000E126800EE56E0A0EE56EBD0EE56E34EC2A
:1046000037F0030EE126800EE56E0A0EE56E9D0E74
:10461000E56E34EC37F0030EE126800EE56E0A0EEF
:10462000E56EBF0EE56E34EC37F0030EE126800E2A
:10463000E56E0A0EE56E9F0EE56E34EC37F0030E64
:10464000E126800EE56E0A0EE56EC10EE56E34ECD5
:1046500037F0030EE126800EE56E0A0EE56EA10E20
:10466000E56E34EC37F0030EE126800EE56E0A0E9F
:10467000E56EC30EE56E34EC37F0030EE126800ED6
:10468000E56E0A0EE56EA30EE56E34EC37F0030E10
:10469000E126800EE56E0A0EE56EC50EE56E34EC81
:1046A00037F0030EE126800EE56E0A0EE56EA50ECC
:1046B000E56E34EC37F0030EE126800EE56E0A0E4F
:1046C000E56EC70EE56E34EC37F0030EE126800E82
:1046D000E56E0A0EE56EA70EE56E34EC37F0030EBC
:1046E000E126800EE56E0A0EE56EC90EE56E34EC2D
:1046F00037F0030EE126800EE56E0A0EE56EA90E78
:10470000E56E34EC37F0030EE126800EE56E0A0EFE
:10471000E56ECB0EE56E34EC37F0030EE126800E2D
:10472000E56E0A0EE56EAB0EE56E34EC37F0030E67
:10473000E126800EE56E0A0EE56ECD0EE56E34ECD8
:1047400037F0030EE126800EE56E0A0EE56EAD0E23
:10475000E56E34EC37F0030EE126800EE56E0A0EAE
:10476000E56ECF0EE56E34EC37F0030EE126800ED9
:10477000E56E0A0EE56EAF0EE56E34EC37F0030E13
:10478000E126800EE56E0A0EE56ED10EE56E34EC84
:1047900037F0030EE126800EE56E0A0EE56EB10ECF
:1047A000E56E34EC37F0030EE126800EE56E0A0E5E
:1047B000E56ED30EE56E34EC37F0030EE126800E85
:1047C000E56E0A0EE56EB30EE56E34EC37F0030EBF
:1047D000E1261200D9CFE5FFE1CFD9FF00C0E5FF08
:1047E00001C0E5FF02C0E5FF03C0E5FF04C0E5FF2F
:1047F00005C0E5FF06C0E5FF07C0E5FF08C0E5FF0F
:10480000020EDBCF00F0030EDBCF01F0040EDBCF96
:1048100002F0036A046A93EC3BF0056EFE0A01E0C5
:1048200075D03EEC36F093EC3BF0066E040E065C61
:10483000D8B05AD0FA6AFB6A0634FA36E834FA3647
:10484000FC0B520FE56E480EFA22000EFB22E450DC
:10485000F96E31EF24F03DEF24F050EF24F063EFD8
:1048600024F000C0E9FF01C0F3FF025068EC3EF005
:10487000076E07C003F0046A37D00050010F076EBF
:10488000000E0120086E000E022007C0E9FF08C0DC
:10489000F3FF68EC3EF0076E07C003F0046A24D013
:1048A0000050020F076E000E0120086E000E02205D
:1048B00007C0E9FF08C0F3FF68EC3EF0076E07C0D1
:1048C00003F0046A11D000500F0F076E000E012094
:1048D000086E000E022007C0E9FF08C0F3FFDDEC00
:1048E0003DF0036EF3CF04F00450E56E0350E56E27
:1048F000E56A0650E56E000EE56E570EE56E5C0E3D
:10490000E56E9DEC38F0070EE1268DD0040E055CB7
:10491000D8B089D0FA6AFB6A0534FA36E834FA3638
:10492000FC0B320FE56E490EFA22000EFB22E4501A
:10493000F96EA1EF24F0AEEF24F0D9EF24F0EFEF01
:1049400024F093EC3BF0036E03C0E5FF00C0E9FFE9
:1049500001C0F3FF0250F2EC3EF065D00050010FB1
:10496000036E000E0120046E000E0220056E93EC13
:104970003BF0066E06C0E5FF03C0E9FF04C0F3FF8D
:104980000550F2EC3EF00650D8A44DD00050030F75
:10499000036E000E0120046E000E0220E56AF46A28
:1049A000F66AF76A03C0E9FF04C0F3FF79EC3EF052
:1049B0003AD00050020F036E000E0120046E000E6C
:1049C0000220056E93EC3BF0066E06C0E5FF03C0C7
:1049D000E9FF04C0F3FF0550F2EC3EF024D00F0EC7
:1049E0000026000E0122022293EC3BF0066E056ABF
:1049F000E56A06C0F4FF00C0E9FF01C0F3FF025002
:104A0000C3EC3EF093EC3BF0046A0526045006220A
:104A100005C0E5FF06C0F4FF00C0E9FF01C0F3FFD9
:104A20000250C3EC3EF0E4CF08F0E4CF07F0E4CF4F
:104A300006F0E4CF05F0E4CF04F0E4CF03F0E4CFD8
:104A400002F0E4CF01F0E4CF00F0E4CFD9FF120090
:104A500000C0E5FF01C0E5FF02C0E5FF03C0E5FFC0
:104A600004C0E5FF05C0E5FF06C0E5FF07C0E5FFA0
:104A700008C0E5FF09C0E5FFC2B202D104016D51D3
:104A8000D8B4ADD004016C51020DF450016EF3CFD7
:104A900000F0E00E0026000E012200C0E9FF01C078
:104AA000EAFFEECF02F0EFCF03F003340330056EE0
:104AB0000230046E05340532043205340532043206
:104AC0000450025C046E05500358056EC3CF06F017
:104AD000076A0650042607500522C4CF06F0065088
:104AE000096E086A085004260950052200C0E9FF33
:104AF00001C0EAFF04C0EEFF05C0EFFF04016851EA
:104B0000010A01E06AD004016C51020DF450016EFB
:104B1000F3CF00F0E00E0024046E000E0120056EBD
:104B200004C0E9FF05C0EAFFEECF02F0EFCF03F0CB
:104B3000950E00260A0E012200C0E9FF01C0EAFF1F
:104B4000EECF04F0EFCF05F09C0E0426D8A00506AA
:104B50000350800FF36E0550800FF35C02E10450A8
:104B6000025C0EE20250640F046E000E0320056E1C
:104B700000C0E9FF01C0EAFF04C0EEFF05C0EFFF7F
:104B800004016C51020DF450016EF3CF00F0B50E2C
:104B900000260A0E012200C0E9FF01C0EAFFEECFA5
:104BA00004F0EFCF05F0640E0426D8B0052A0550B6
:104BB000800FF36E0350800FF35C02E10250045C3F
:104BC0000CE29C0E0226D8A0030600C0E9FF01C03B
:104BD000EAFF02C0EEFF03C0EFFF04016D6B0401AA
:104BE0006C2B100E6C5D01E36C6B04016C39E844B6
:104BF0001F0B006E016A900E0026010E012200C0FC
:104C0000E9FF01C0EAFFEFCF00F0070E6C15016E5F
:104C1000010E026E000E036E015006E0E86CD890A3
:104C200002360336010FFCE3046A005002160450FA
:104C30000316025005E1035003E1026A022A01D083
:104C4000026A0250D880E866D890026A02360250A2
:104C500017E0200E04016C25006E016A010E01228E
:104C600000C0E9FF01C0EAFFEFCF00F00044E844D4
:104C7000FC0B016E0128C26EC282010E04016D6F31
:104C8000E4CF09F0E4CF08F0E4CF07F0E4CF06F07A
:104C9000E4CF05F0E4CF04F0E4CF03F0E4CF02F07A
:104CA000E4CF01F0E4CF00F01200D9CFE5FFE1CF6F
:104CB000D9FF00C0E5FF01C0E5FF02C0E5FF03C06A
:104CC000E5FF04C0E5FF05C0E5FF06C0E5FF07C03E
:104CD000E5FF08C0E5FF09C0E5FF0AC0E5FF0BC01E
:104CE000E5FF020EDBCF00F0030EDBCF01F0040E78
:104CF000DBCF02F0050EDBCF03F0060EDBCF04F0B6
:104D0000070EDBCF05F0080EDBCF06F0090EDBCF78
:104D100007F006C008F0060608500EE0065004240E
:104D2000086EE86A06BEE8680520096E08C0E9FF5B
:104D300009C0EAFFEF6AEDD7005001018A6F015008
:104D40008B6F02508C6F03508D6F8AC100F08BC146
:104D500001F08CC102F08DC103F0066A086A096A8D
:104D6000800E03140A6E065007E1085005E1095051
:104D700003E10A50800A01E012D0039E00500101B5
:104D80008A6F01508B6F02508C6F03508D6F04C07F
:104D9000E9FF05C0EAFF2D0EEF6E044A052A010166
:104DA0008C358D357E08006E8A51016E8B51026EF6
:104DB0007F0E8C15036E066A038E086A096A0A6AFA
:104DC0000B6A005019E0D88000AED8900EE308506E
:104DD000082609360A360B3603BE08800150012624
:104DE000023603360636002AECD7D8900632033254
:104DF000023201320006E5D7085009100A100B10E4
:104E000012E00550E56E0450E56E0B50E56E0A5059
:104E1000E56E0950E56E0850E56E3EEC3BF0006E25
:104E2000060EE12608D004C0E9FF05C0EAFF300EF7
:104E3000EF6E010E006E00500426E86A00BEE868BE
:104E40000522075028E004C0E9FF05C0EAFF2E0E46
:104E5000EF6E002A044A052A07501808E56E05502F
:104E6000E56E0450E56E0650E56E0350E56E0250A7
:104E7000E56E0150E56EABEC3AF0016E070EE126EF
:104E80000150002607500426E86A052204C0E9FF05
:104E900005C0EAFFEF6A0050E4CF0BF0E4CF0AF060
:104EA000E4CF09F0E4CF08F0E4CF07F0E4CF06F058
:104EB000E4CF05F0E4CF04F0E4CF03F0E4CF02F058
:104EC000E4CF01F0E4CF00F0E4CFD9FF1200D9CF56
:104ED000E5FFE1CFD9FF00C0E5FF01C0E5FF02C05B
:104EE000E5FF03C0E5FF04C0E5FF05C0E5FF06C020
:104EF000E5FF07C0E5FF020EDBCF00F0030EDBCFBE
:104F000001F0040EDBCF02F0050EDBCF03F0060E3E
:104F1000DBCF04F0070EDBCF05F0080EDBCF06F089
:104F2000090EDBCF07F000500101766F0150776F5B
:104F30000250786F0350796F045001017A6F055069
:104F40007B6F06507C6F07507D6F01017651010128
:104F50007C03F4CF01F0F3CF00F000500101806F2B
:104F60000150816F0101765101017A03F4CF01F004
:104F7000F3CF00F0005001017E6F01507F6F0101FF
:104F8000795101017A03F3CF00F00101815100262C
:104F90000050816F0101785101017B03F3CF00F0D4
:104FA0000101815100260050816F010178510101FA
:104FB0007A03F4CF01F0F3CF00F001018051002615
:104FC000815101220050806F0150816F01017751A2
:104FD00001017B03F4CF01F0F3CF00F00101805118
:104FE0000026815101220050806F0150816F010124
:104FF000775101017C03F3CF00F000500101856F70
:105000000101775101017A03F4CF01F0F3CF00F0F1
:1050100000500101836F0150846F0101765101013D
:105020007D03F3CF00F000500101896F010176513B
:1050300001017B03F4CF01F0F3CF00F00050010138
:10504000876F0150886F0101826B0101866B01013E
:10505000825101017E25006E0101835101017F21F2
:10506000016E0101845101018021026E010185510F
:1050700001018121036E00507E6F01507F6F02504D
:10508000806F0350816F0101865101017E25006E02
:105090000101875101017F21016E01018851010148
:1050A0008021026E0101895101018121036E03C03B
:1050B000E9FF02C0F4FF01C0F3FF0050E4CF07F0A6
:1050C000E4CF06F0E4CF05F0E4CF04F0E4CF03F042
:1050D000E4CF02F0E4CF01F0E4CF00F0E4CFD9FF59
:1050E000120000C0E5FF01C0E5FF04016551D8B41E
:1050F000F5D09DA81DD09EA81BD00101A75101018C
:10510000A41905E1A7EC3EF00101A46BE7D0000E65
:105110000101A725006E016A0F0E012200C0E9FF00
:1051200001C0EAFFEFCFA0F1A72BA0C1ADFFD6D001
:105130009EAAD4D0ABA205D00101A581A7EC3EF078
:10514000CDD0ABA405D00101A583A7EC3EF0C6D01D
:10515000ABA03ED0AECFA0F1800E040166110101DC
:10516000A01904E10101A589AB96B8D00101A051B5
:1051700004E0A0510401661927E10101A599AB964D
:105180000101A05103E00101A59702D00101A5870B
:10519000A0C1A9F1A2C1AAF10101A2050101AB6F51
:1051A000600E0101AA25006E016A000E012200C0F6
:1051B000E9FF01C0EAFFA0C1EFFFAA2BAA51800AB4
:1051C00002E10101AA6B8AD00101A599AB8686D0C4
:1051D000AECFA0F10101A5A919D0800E040166117E
:1051E0000101A01911E18B909D9AAB980101A45186
:1051F00004E1AD6AA7EC3EF007D000CFADFF010E91
:105200000101A76F9D886AD0AB8668D00101A051CB
:105210000101A9270101AA510101AB191BE10101FB
:10522000A9510CE1AAC1A2F10101A5B712D08B903E
:105230009D9AAB98AD6AA7EC3EF00BD00101A58515
:10524000A5B707D08B909D9AAB98010EAD6EA7ECD9
:105250003EF044D00101AA510101A31908E1010166
:10526000A3510101A21903E0A7EC3EF037D0A2C17F
:1052700000F0016A004A012AE56A800EE56E0150DD
:10528000E56E0050E56E74EC32F0006E040EE1261F
:1052900000500101A16F0101AA190CE11F0E0101CB
:1052A000A0150101AB6FAB2BAB2B0101A25101018A
:1052B000AB27AB9FAAC100F00101AA2B016A600EC7
:1052C0000026000E012200C0E9FF01C0EAFFA0C1D4
:1052D000EFFFAA51800A02E10101AA6BE4CF01F0BD
:1052E000E4CF00F01200D9CFE5FFE1CFD9FF00C035
:1052F000E5FF01C0E5FF02C0E5FF03C0E5FF04C014
:10530000E5FF05C0E5FF06C0E5FF07C0E5FF08C0F3
:10531000E5FF09C0E5FF0AC0E5FF0BC0E5FF0CC0D3
:10532000E5FF0DC0E5FF0EC0E5FF0FC0E5FF020E73
:10533000DBCF00F0030EDBCF01F0040EDBCF02F079
:10534000050EDBCF03F0060EDBCF04F0070EDBCF3C
:1053500005F0080EDBCF06F0200E076E086A06C0C7
:1053600009F00A6A0B6A0C6AE56AE56AE56A09509F
:10537000E56E0350E56E0250E56E0150E56E00509B
:10538000E56EB2EC2BF00D6E080EE126300E0D2608
:105390003A0E0D5C05E30D500E6E270E0E240D6EB9
:1053A000FF0E07260822000E07240E6E010E0820AD
:1053B0000F6E0EC0E9FF0FC0EAFF0DC0EFFF0C50EB
:1053C000E56E0B50E56E0A50E56E0950E56E035030
:1053D000E56E0250E56E0150E56E0050E56EECECB6
:1053E0002DF0006EF3CF01F0F4CF02F0E9CF03F01F
:1053F000080EE1260050011002100310D8A4AFD708
:1054000007C000F008C001F004C002F005C003F0BE
:1054100000C004F001C005F0004A012A000E042675
:10542000010E052204C0E9FF05C0EAFFEFCF04F03A
:1054300002C0E9FF03C0EAFF04C0EFFF024A032AEB
:10544000000E015C02E1200E005CE2E302C0E9FF15
:1054500003C0EAFF000EEF6AE4CF0FF0E4CF0EF0D6
:10546000E4CF0DF0E4CF0CF0E4CF0BF0E4CF0AF082
:10547000E4CF09F0E4CF08F0E4CF07F0E4CF06F082
:10548000E4CF05F0E4CF04F0E4CF03F0E4CF02F082
:10549000E4CF01F0E4CF00F0E4CFD9FF1200D9CF80
:1054A000E5FFE1CFD9FF00C0E5FF01C0E5FF02C085
:1054B000E5FF03C0E5FF04C0E5FF05C0E5FF06C04A
:1054C000E5FF07C0E5FF08C0E5FF09C0E5FF0AC02A
:1054D000E5FF0BC0E5FF0CC0E5FF0DC0E5FF020EC8
:1054E000DBCF00F0030EDBCF01F0040EDBCF02F0C8
:1054F000050EDBCF03F0060EDBCF04F0070EDBCF8B
:1055000005F0080EDBCF06F0090EDBCF07F0D880E0
:1055100003AED890086A083608500FE0031C0C6EE2
:10552000021C0B6E011C0A6E001C096E092A0DE19B
:105530000A2A0BE10B4A0C2A08D000C009F001C06E
:105540000AF002C00BF003C00CF0D88007AED89070
:10555000006A003600500FE0071C0D6E061C036E3B
:10556000051C026E041C016E012A0DE1022A0BE1EA
:10557000034A0D2A08D004C001F005C002F006C09D
:1055800003F007C00DF00D50E56E0350E56E0250BC
:10559000E56E0150E56E0C50E56E0B50E56E0A505D
:1055A000E56E0950E56EECEC2DF0016EF3CF02F0E4
:1055B000F4CF03F0E9CF04F0080EE1260050081AFA
:1055C000085016E0041C076E031C066E021C056ED4
:1055D000011C006E002A04E1052A02E1064A072A9E
:1055E00007C0E9FF06C0F4FF05C0F3FF005007D075
:1055F00004C0E9FF03C0F4FF02C0F3FF0150E4CF91
:105600000DF0E4CF0CF0E4CF0BF0E4CF0AF0E4CFE0
:1056100009F0E4CF08F0E4CF07F0E4CF06F0E4CFE0
:1056200005F0E4CF04F0E4CF03F0E4CF02F0E4CFE0
:1056300001F0E4CF00F0E4CFD9FF1200D9CFE5FFAD
:10564000E1CFD9FF00C0E5FF01C0E5FF02C0E5FFE3
:1056500003C0E5FF04C0E5FF05C0E5FF06C0E5FFA8
:1056600007C0E5FF020EDBCF00F0030EDBCF01F039
:10567000040EDBCF02F000500B0F036E000E012072
:10568000046E000E0220E56AF46AF66AF76A03C047
:10569000E9FF04C0F3FF79EC3EF00050070F036E02
:1056A000000E0120046E000E0220056E0050030F54
:1056B000066E000E0120076E000E0220E56AF46AF5
:1056C000F66AF76A06C0E9FF07C0F3FF79EC3EF01F
:1056D000E56AF46AF66AF76A03C0E9FF04C0F3FFFB
:1056E000055079EC3EF00050010F036E000E0120D2
:1056F000046E000E0220056E0050020F066E000EB2
:105700000120076E000E0220E56A06C0E9FF07C00F
:10571000F3FFF2EC3EF0E56A03C0E9FF04C0F3FFDB
:105720000550F2EC3EF0E56A00C0E9FF01C0F3FF6E
:105730000250F2EC3EF0E4CF07F0E4CF06F0E4CF05
:1057400005F0E4CF04F0E4CF03F0E4CF02F0E4CFBF
:1057500001F0E4CF00F0E4CFD9FF1200256420254A
:10576000640A0000D9CFE5FFE1CFD9FF00C0E5FF13
:1057700001C0E5FF02C0E5FF03C0E5FF04C0E5FF8F
:1057800005C0E5FF06C0E5FF07C0E5FF08C0E5FF6F
:1057900009C0E5FF0AC0E5FF020EDBCF00F0030EF3
:1057A000DBCF01F0040EDBCF02F0050EDBCF03F000
:1057B000060EDBCF04F0070EDBCF05F0080EDBCFC3
:1057C00006F0090EDBCF07F0086A096A0750800B64
:1057D000E8440A6E0A501BE10450042605360636DA
:1057E00007360750035C08E10650025C05E10550EE
:1057F000015C02E10450005C06E2D89007320632F8
:105800000532043204D0092A09C008F0DFD7075056
:10581000035C08E10650025C05E10550015C02E111
:105820000450005C08E30450005E0550015A065025
:10583000025A0750035AD890073206320532043212
:1058400008C009F008060950E2E103C0E9FF02C000
:10585000F4FF01C0F3FF0050E4CF0AF0E4CF09F0F9
:10586000E4CF08F0E4CF07F0E4CF06F0E4CF05F092
:10587000E4CF04F0E4CF03F0E4CF02F0E4CF01F092
:10588000E4CF00F0E4CFD9FF120000C0E5FF01C073
:10589000E5FF03C0E5FF04C0E5FF05C0E5FF06C066
:1058A000E5FF07C0E5FF08C0E5FF09C0E5FF0AC046
:1058B000E5FF0BC0E5FF8EC100F08FC101F00101D3
:1058C0008E3F01D08F2B0050E56E99EC3EF0E652F2
:1058D000076E046A056A066A8EC100F08FC101F086
:1058E00001018E3F01D08F2B0050E56E99EC3EF008
:1058F000E6520B6A0A6E086A0850041205120A5032
:1059000006120B5007128EC100F08FC101F0010189
:105910008E3F01D08F2B0050E56E99EC3EF0E652A1
:10592000036E006A03C001F0E86A03BEFF0E086E52
:10593000096E005004120150051208500612095059
:1059400007128EC100F08FC101F001018E3F01D01E
:105950008F2B0050E56E99EC3EF0E652016A04127E
:10596000015005120612071207C0E9FF06C0F4FF36
:1059700005C0F3FF0450E4CF0BF0E4CF0AF0E4CF0E
:1059800009F0E4CF08F0E4CF07F0E4CF06F0E4CF6D
:1059900005F0E4CF04F0E4CF03F0E4CF01F0E4CF6E
:1059A00000F0120000C0E5FF01C0E5FF02C0E5FF06
:1059B00003C0E5FF04C0E5FF0101A3510101A219E5
:1059C00001E15FD0A3C100F0002A009E600E002418
:1059D000016E026A000E022201C0E9FF02C0EAFF66
:1059E000EFCFADF11F0E0101AD17A3C1ACF1AD5169
:1059F0000101AC27AC2BAC2BAC9F93EC3BF0016EC0
:105A0000015003E1016A012A01D0016A93EC3BF0E5
:105A10000101AD6F800EAD15026E1F0EAD15036E48
:105A200003C004F003C0ADF1045003E1A2C1A3F12F
:105A30003BD001501BE0025022E093EC3BF0006EA3
:105A40000101AD070050420A1AE000504E0A03E17E
:105A50001BEC38F014D00050460A03E1E7EC3EF0AE
:105A60000ED00050490A0BE1FF0009D0A3C1AEF1EE
:105A7000025003E0E5EC36F002D03AEC35F0ACC170
:105A8000A3F1040162510401631906E00101A4516C
:105A900003E178EC2EF008D08BB006D00101A451C0
:105AA00003E1ACB2A7EC3EF0E4CF04F0E4CF03F0A6
:105AB000E4CF02F0E4CF01F0E4CF00F01200D9CF40
:105AC000E5FFE1CFD9FF00C0E5FF01C0E5FF02C05F
:105AD000E5FF03C0E5FF04C0E5FF05C0E5FF06C024
